{
  "_format": "hh-sol-artifact-1",
  "contractName": "RaffleFactory",
  "sourceName": "contracts/RaffleFactory.sol",
  "abi": [
    {
      "inputs": [],
      "stateMutability": "nonpayable",
      "type": "constructor"
    },
    {
      "inputs": [
        {
          "internalType": "address",
          "name": "target",
          "type": "address"
        }
      ],
      "name": "AddressEmptyCode",
      "type": "error"
    },
    {
      "inputs": [
        {
          "internalType": "address",
          "name": "implementation",
          "type": "address"
        }
      ],
      "name": "ERC1967InvalidImplementation",
      "type": "error"
    },
    {
      "inputs": [],
      "name": "ERC1967NonPayable",
      "type": "error"
    },
    {
      "inputs": [],
      "name": "FailedCall",
      "type": "error"
    },
    {
      "inputs": [],
      "name": "FailedDeployment",
      "type": "error"
    },
    {
      "inputs": [
        {
          "internalType": "uint256",
          "name": "balance",
          "type": "uint256"
        },
        {
          "internalType": "uint256",
          "name": "needed",
          "type": "uint256"
        }
      ],
      "name": "InsufficientBalance",
      "type": "error"
    },
    {
      "inputs": [],
      "name": "InvalidInitialization",
      "type": "error"
    },
    {
      "inputs": [],
      "name": "NotInitializing",
      "type": "error"
    },
    {
      "inputs": [
        {
          "internalType": "address",
          "name": "owner",
          "type": "address"
        }
      ],
      "name": "OwnableInvalidOwner",
      "type": "error"
    },
    {
      "inputs": [
        {
          "internalType": "address",
          "name": "account",
          "type": "address"
        }
      ],
      "name": "OwnableUnauthorizedAccount",
      "type": "error"
    },
    {
      "inputs": [],
      "name": "ReentrancyGuardReentrantCall",
      "type": "error"
    },
    {
      "inputs": [],
      "name": "UUPSUnauthorizedCallContext",
      "type": "error"
    },
    {
      "inputs": [
        {
          "internalType": "bytes32",
          "name": "slot",
          "type": "bytes32"
        }
      ],
      "name": "UUPSUnsupportedProxiableUUID",
      "type": "error"
    },
    {
      "anonymous": false,
      "inputs": [
        {
          "indexed": false,
          "internalType": "uint256",
          "name": "newCreationFee",
          "type": "uint256"
        }
      ],
      "name": "CreationFeeUpdated",
      "type": "event"
    },
    {
      "anonymous": false,
      "inputs": [
        {
          "indexed": true,
          "internalType": "address",
          "name": "entropyAddress",
          "type": "address"
        },
        {
          "indexed": true,
          "internalType": "address",
          "name": "entropyProvider",
          "type": "address"
        }
      ],
      "name": "EntropyUpdated",
      "type": "event"
    },
    {
      "anonymous": false,
      "inputs": [
        {
          "indexed": false,
          "internalType": "uint64",
          "name": "version",
          "type": "uint64"
        }
      ],
      "name": "Initialized",
      "type": "event"
    },
    {
      "anonymous": false,
      "inputs": [
        {
          "indexed": true,
          "internalType": "address",
          "name": "previousOwner",
          "type": "address"
        },
        {
          "indexed": true,
          "internalType": "address",
          "name": "newOwner",
          "type": "address"
        }
      ],
      "name": "OwnershipTransferred",
      "type": "event"
    },
    {
      "anonymous": false,
      "inputs": [
        {
          "indexed": false,
          "internalType": "uint256",
          "name": "newFeePercentage",
          "type": "uint256"
        }
      ],
      "name": "PlatformFeeUpdated",
      "type": "event"
    },
    {
      "anonymous": false,
      "inputs": [
        {
          "indexed": false,
          "internalType": "address",
          "name": "newWallet",
          "type": "address"
        }
      ],
      "name": "PlatformWalletUpdated",
      "type": "event"
    },
    {
      "anonymous": false,
      "inputs": [
        {
          "indexed": true,
          "internalType": "uint256",
          "name": "raffleId",
          "type": "uint256"
        },
        {
          "indexed": true,
          "internalType": "address",
          "name": "raffleAddress",
          "type": "address"
        },
        {
          "indexed": true,
          "internalType": "address",
          "name": "owner",
          "type": "address"
        },
        {
          "indexed": false,
          "internalType": "uint256",
          "name": "createdAt",
          "type": "uint256"
        }
      ],
      "name": "RaffleCreated",
      "type": "event"
    },
    {
      "anonymous": false,
      "inputs": [
        {
          "indexed": true,
          "internalType": "address",
          "name": "newTemplate",
          "type": "address"
        }
      ],
      "name": "RaffleTemplateUpdated",
      "type": "event"
    },
    {
      "anonymous": false,
      "inputs": [
        {
          "indexed": true,
          "internalType": "address",
          "name": "implementation",
          "type": "address"
        }
      ],
      "name": "Upgraded",
      "type": "event"
    },
    {
      "anonymous": false,
      "inputs": [
        {
          "indexed": true,
          "internalType": "address",
          "name": "implementation",
          "type": "address"
        }
      ],
      "name": "Upgraded",
      "type": "event"
    },
    {
      "inputs": [],
      "name": "UPGRADE_INTERFACE_VERSION",
      "outputs": [
        {
          "internalType": "string",
          "name": "",
          "type": "string"
        }
      ],
      "stateMutability": "view",
      "type": "function"
    },
    {
      "inputs": [
        {
          "internalType": "enum Raffle.PrizeType",
          "name": "_prizeType",
          "type": "uint8"
        },
        {
          "internalType": "address",
          "name": "_prizeContractAddress",
          "type": "address"
        },
        {
          "internalType": "uint256",
          "name": "_prizeTokenId",
          "type": "uint256"
        },
        {
          "internalType": "uint256",
          "name": "_prizeAmount",
          "type": "uint256"
        },
        {
          "internalType": "uint256",
          "name": "_ticketPrice",
          "type": "uint256"
        },
        {
          "internalType": "address",
          "name": "_ticketTokenAddress",
          "type": "address"
        },
        {
          "internalType": "uint256",
          "name": "_maxTicketsPerWallet",
          "type": "uint256"
        },
        {
          "internalType": "uint256",
          "name": "_maxTotalTickets",
          "type": "uint256"
        },
        {
          "internalType": "uint256",
          "name": "_duration",
          "type": "uint256"
        },
        {
          "internalType": "bool",
          "name": "_participantsVisible",
          "type": "bool"
        },
        {
          "internalType": "bool",
          "name": "_participantCountVisible",
          "type": "bool"
        }
      ],
      "name": "createRaffle",
      "outputs": [
        {
          "internalType": "address",
          "name": "",
          "type": "address"
        }
      ],
      "stateMutability": "payable",
      "type": "function"
    },
    {
      "inputs": [
        {
          "internalType": "uint256",
          "name": "_raffleId",
          "type": "uint256"
        }
      ],
      "name": "deactivateRaffle",
      "outputs": [],
      "stateMutability": "nonpayable",
      "type": "function"
    },
    {
      "inputs": [],
      "name": "entropyAddress",
      "outputs": [
        {
          "internalType": "address",
          "name": "",
          "type": "address"
        }
      ],
      "stateMutability": "view",
      "type": "function"
    },
    {
      "inputs": [],
      "name": "entropyProvider",
      "outputs": [
        {
          "internalType": "address",
          "name": "",
          "type": "address"
        }
      ],
      "stateMutability": "view",
      "type": "function"
    },
    {
      "inputs": [],
      "name": "getAllActiveRaffles",
      "outputs": [
        {
          "components": [
            {
              "internalType": "address",
              "name": "raffleAddress",
              "type": "address"
            },
            {
              "internalType": "address",
              "name": "owner",
              "type": "address"
            },
            {
              "internalType": "uint256",
              "name": "createdAt",
              "type": "uint256"
            },
            {
              "internalType": "bool",
              "name": "isActive",
              "type": "bool"
            }
          ],
          "internalType": "struct RaffleFactory.RaffleDetails[]",
          "name": "",
          "type": "tuple[]"
        }
      ],
      "stateMutability": "view",
      "type": "function"
    },
    {
      "inputs": [
        {
          "internalType": "uint256",
          "name": "_raffleId",
          "type": "uint256"
        }
      ],
      "name": "getRaffleDetails",
      "outputs": [
        {
          "components": [
            {
              "internalType": "address",
              "name": "raffleAddress",
              "type": "address"
            },
            {
              "internalType": "address",
              "name": "owner",
              "type": "address"
            },
            {
              "internalType": "uint256",
              "name": "createdAt",
              "type": "uint256"
            },
            {
              "internalType": "bool",
              "name": "isActive",
              "type": "bool"
            }
          ],
          "internalType": "struct RaffleFactory.RaffleDetails",
          "name": "",
          "type": "tuple"
        }
      ],
      "stateMutability": "view",
      "type": "function"
    },
    {
      "inputs": [
        {
          "internalType": "address",
          "name": "_user",
          "type": "address"
        }
      ],
      "name": "getRafflesByUser",
      "outputs": [
        {
          "internalType": "uint256[]",
          "name": "",
          "type": "uint256[]"
        }
      ],
      "stateMutability": "view",
      "type": "function"
    },
    {
      "inputs": [],
      "name": "getTotalRaffles",
      "outputs": [
        {
          "internalType": "uint256",
          "name": "",
          "type": "uint256"
        }
      ],
      "stateMutability": "view",
      "type": "function"
    },
    {
      "inputs": [
        {
          "internalType": "address",
          "name": "_platformFeeWallet",
          "type": "address"
        },
        {
          "internalType": "address",
          "name": "_owner",
          "type": "address"
        },
        {
          "internalType": "address",
          "name": "_entropyAddress",
          "type": "address"
        },
        {
          "internalType": "address",
          "name": "_entropyProvider",
          "type": "address"
        }
      ],
      "name": "initialize",
      "outputs": [],
      "stateMutability": "nonpayable",
      "type": "function"
    },
    {
      "inputs": [],
      "name": "owner",
      "outputs": [
        {
          "internalType": "address",
          "name": "",
          "type": "address"
        }
      ],
      "stateMutability": "view",
      "type": "function"
    },
    {
      "inputs": [],
      "name": "platformFeePercentage",
      "outputs": [
        {
          "internalType": "uint256",
          "name": "",
          "type": "uint256"
        }
      ],
      "stateMutability": "view",
      "type": "function"
    },
    {
      "inputs": [],
      "name": "platformFeeWallet",
      "outputs": [
        {
          "internalType": "address",
          "name": "",
          "type": "address"
        }
      ],
      "stateMutability": "view",
      "type": "function"
    },
    {
      "inputs": [],
      "name": "proxiableUUID",
      "outputs": [
        {
          "internalType": "bytes32",
          "name": "",
          "type": "bytes32"
        }
      ],
      "stateMutability": "view",
      "type": "function"
    },
    {
      "inputs": [],
      "name": "raffleCreationFee",
      "outputs": [
        {
          "internalType": "uint256",
          "name": "",
          "type": "uint256"
        }
      ],
      "stateMutability": "view",
      "type": "function"
    },
    {
      "inputs": [],
      "name": "raffleTemplate",
      "outputs": [
        {
          "internalType": "address",
          "name": "",
          "type": "address"
        }
      ],
      "stateMutability": "view",
      "type": "function"
    },
    {
      "inputs": [
        {
          "internalType": "uint256",
          "name": "",
          "type": "uint256"
        }
      ],
      "name": "raffles",
      "outputs": [
        {
          "internalType": "address",
          "name": "raffleAddress",
          "type": "address"
        },
        {
          "internalType": "address",
          "name": "owner",
          "type": "address"
        },
        {
          "internalType": "uint256",
          "name": "createdAt",
          "type": "uint256"
        },
        {
          "internalType": "bool",
          "name": "isActive",
          "type": "bool"
        }
      ],
      "stateMutability": "view",
      "type": "function"
    },
    {
      "inputs": [],
      "name": "renounceOwnership",
      "outputs": [],
      "stateMutability": "nonpayable",
      "type": "function"
    },
    {
      "inputs": [
        {
          "internalType": "uint256",
          "name": "_creationFee",
          "type": "uint256"
        }
      ],
      "name": "setCreationFee",
      "outputs": [],
      "stateMutability": "nonpayable",
      "type": "function"
    },
    {
      "inputs": [
        {
          "internalType": "address",
          "name": "_entropyAddress",
          "type": "address"
        },
        {
          "internalType": "address",
          "name": "_entropyProvider",
          "type": "address"
        }
      ],
      "name": "setEntropy",
      "outputs": [],
      "stateMutability": "nonpayable",
      "type": "function"
    },
    {
      "inputs": [
        {
          "internalType": "uint256",
          "name": "_feePercentage",
          "type": "uint256"
        }
      ],
      "name": "setPlatformFeePercentage",
      "outputs": [],
      "stateMutability": "nonpayable",
      "type": "function"
    },
    {
      "inputs": [
        {
          "internalType": "address",
          "name": "_platformFeeWallet",
          "type": "address"
        }
      ],
      "name": "setPlatformFeeWallet",
      "outputs": [],
      "stateMutability": "nonpayable",
      "type": "function"
    },
    {
      "inputs": [
        {
          "internalType": "address",
          "name": "_raffleTemplate",
          "type": "address"
        }
      ],
      "name": "setRaffleTemplate",
      "outputs": [],
      "stateMutability": "nonpayable",
      "type": "function"
    },
    {
      "inputs": [],
      "name": "totalRaffles",
      "outputs": [
        {
          "internalType": "uint256",
          "name": "",
          "type": "uint256"
        }
      ],
      "stateMutability": "view",
      "type": "function"
    },
    {
      "inputs": [
        {
          "internalType": "address",
          "name": "newOwner",
          "type": "address"
        }
      ],
      "name": "transferOwnership",
      "outputs": [],
      "stateMutability": "nonpayable",
      "type": "function"
    },
    {
      "inputs": [
        {
          "internalType": "address",
          "name": "newImplementation",
          "type": "address"
        },
        {
          "internalType": "bytes",
          "name": "data",
          "type": "bytes"
        }
      ],
      "name": "upgradeToAndCall",
      "outputs": [],
      "stateMutability": "payable",
      "type": "function"
    },
    {
      "inputs": [
        {
          "internalType": "address",
          "name": "",
          "type": "address"
        },
        {
          "internalType": "uint256",
          "name": "",
          "type": "uint256"
        }
      ],
      "name": "userRaffles",
      "outputs": [
        {
          "internalType": "uint256",
          "name": "",
          "type": "uint256"
        }
      ],
      "stateMutability": "view",
      "type": "function"
    },
    {
      "inputs": [],
      "name": "withdrawFees",
      "outputs": [],
      "stateMutability": "nonpayable",
      "type": "function"
    }
  ],
  "bytecode": "0x60a080604052346100cc57306080527ff0c57e16840df040f15088dc2f81fe391c3923bec73e23a9662efc9c229c6a009081549060ff8260401c166100bd57506001600160401b036002600160401b031982821601610078575b604051611e1e90816100d28239608051818181611347015261142d0152f35b6001600160401b031990911681179091556040519081527fc7f505b2f371ae2175ee4913f4499e1f2633a7b5936321eed1cdaeb6115181d290602090a1388080610059565b63f92ee8a960e01b8152600490fd5b600080fdfe608080604052600436101561001357600080fd5b600090813560e01c90816309954000146119fc575080630ded5c36146119305780632fab4d921461194e5780633748312f146119305780633a18d238146117815780633ab48a5a1461175857806340ef7267146116c4578063476343ee1461163f5780634bb7b599146116165780634f1ef286146113b157806352d1902d146113345780635bf414ac1461130b5780635d4bc0ce146112ae578063715018a6146112445780638246ba6f146109095780638333903e146108755780638da5cb5b1461083f578063a080dffe14610791578063ad3cb1cc146106eb578063b7d862251461069d578063cdd78cfc14610680578063d51075c11461062a578063d536098b1461057b578063d96d98ca146104ca578063e20fc118146104a1578063f2fde38b14610479578063f8c8765e1461020e5763ff8af2c91461015557600080fd5b3461020b57602036600319011261020b576004356101766007548210611c13565b80825260056020526040822060010154336001600160a01b03918216149081156101f0575b50156101ba578152600560205260408120600301805460ff1916905580f35b60405162461bcd60e51b815260206004820152600e60248201526d139bdd08185d5d1a1bdc9a5e995960921b6044820152606490fd5b9050600080516020611da9833981519152541633143861019b565b80fd5b503461020b57608036600319011261020b57610228611a18565b610230611a2e565b6044356001600160a01b0381811692918390036104745760643590808216809203610474577ff0c57e16840df040f15088dc2f81fe391c3923bec73e23a9662efc9c229c6a009384549360ff8560401c16159467ffffffffffffffff81169788158061046d575b6001809a149081610463575b15908161045a575b506104485767ffffffffffffffff19821689178855849187610429575b50169283156103e4578116156103af57610307906102e7831515611b56565b6102f2851515611ba2565b6102fa611d04565b610302611d04565b611c57565b61030f611d04565b610317611d04565b85600080516020611dc983398151915255610330611d04565b6101f487556001600160601b0360a01b9182875416178655674563918244f40000600255816003541617600355600454161760045561036d578280f35b805468ff0000000000000000191690556040519081527fc7f505b2f371ae2175ee4913f4499e1f2633a7b5936321eed1cdaeb6115181d290602090a138808280f35b60405162461bcd60e51b815260206004820152600d60248201526c24b73b30b634b21037bbb732b960991b6044820152606490fd5b60405162461bcd60e51b815260206004820152601b60248201527f496e76616c696420706c6174666f726d206665652077616c6c657400000000006044820152606490fd5b68ffffffffffffffffff191668010000000000000001178855386102c8565b60405163f92ee8a960e01b8152600490fd5b905015386102ab565b303b1591506102a3565b5086610297565b600080fd5b503461020b57602036600319011261020b5761049e610496611a18565b610302611ccb565b80f35b503461020b578060031936011261020b576001546040516001600160a01b039091168152602090f35b503461020b57602036600319011261020b576104e4611a18565b6104ec611ccb565b6001600160a01b0316801561053d576020817f73238e3ae0a71b401b31ae67204506d074de41bd5c084082fba9b64b1c7fa28f926001600160601b0360a01b6001541617600155604051908152a180f35b60405162461bcd60e51b8152602060048201526016602482015275496e76616c69642077616c6c6574206164647265737360501b6044820152606490fd5b503461020b57602036600319011261020b57610595611a18565b61059d611ccb565b6001600160a01b031680156105e557600880546001600160a01b031916821790557f6473381f4e7d53f734f4012beb415e1ad4187cd57091e32cdf2abfba7b2e49178280a280f35b60405162461bcd60e51b815260206004820152601860248201527f496e76616c69642074656d706c617465206164647265737300000000000000006044820152606490fd5b503461020b57604036600319011261020b57610644611a18565b6001600160a01b031681526006602052604081208054602435929083101561020b5760206106728484611ab2565b90546040519160031b1c8152f35b503461020b578060031936011261020b5760209054604051908152f35b503461020b57602036600319011261020b577f88a973fd5506071e0cf878b30898776c47d5250a7ee1e6ee0b36df3b03c7c16a60206004356106dd611ccb565b80600255604051908152a180f35b503461020b578060031936011261020b576040516040810181811067ffffffffffffffff82111761077b5760405260058152602091640352e302e360dc1b602083015260405192839160208352835191826020850152815b83811061076457505060408094508284010152601f80199101168101030190f35b808601820151878201604001528694508101610743565b634e487b7160e01b600052604160045260246000fd5b503461020b57602036600319011261020b5760406080916004356107b3611b1d565b506107c16007548210611c13565b815260056020522060ff6003604051926107da84611a44565b60018060a01b038082541685526001820154166020850152600281015460408501520154161515606082015261083d60405180926060809160018060a01b0380825116855260208201511660208501526040810151604085015201511515910152565bf35b503461020b578060031936011261020b57600080516020611da9833981519152546040516001600160a01b039091168152602090f35b503461020b57602036600319011261020b57600435610892611ccb565b6103e881116108cc576020817f45610d581145924dd7090a5017e5f2b1d6f42213bb2e95707ff86846bbfcb1ca928455604051908152a180f35b60405162461bcd60e51b81526020600482015260156024820152744665652063616e6e6f74206578636565642031302560581b6044820152606490fd5b5061016036600319011261020b576002600435101561020b5761092a611a2e565b60a4356001600160a01b0381168103610eb65761012435918215158303611240576101443591821515830361123c576002600080516020611dc9833981519152541461122a576002600080516020611dc983398151915255603c61010435106111da5762278d0061010435116111a15760843515611150576109af6101043542611bee565b60025460043515929190838061113f575b6110c7575b341061108b5782156110205760643515610fcf576001600160a01b038416610f20575b6008546001600160a01b03811615610edb57608881901c62ffffff16763d602d80600a3d3981f3363d3d373d3d3d363d7300000017885260781b6effffffffffffffffffffffffffffff19166e5af43d82803e903d91602b57fd5bf3176020526037600988f0956001600160a01b03871615610ec957875460015489976001600160a01b03918216949293909290918a163b15610ec557604051956312731f1760e01b8752336004880152600435602488015260018060a01b03891660448801526044356064880152606435608488015260843560a488015260018060a01b031660c487015260c43560e487015260e435610104870152610124860152151561014485015215156101648401526101848301526101a4820152306101c482015283816101e4818360018060a01b038a165af1908115610eba578491610ea2575b505015610e31576001600160a01b038116610d6957508060643515610d60575b819081908190606435906001600160a01b03871690f115610d13575b6001600160a01b0381163b15610d5157604051633863243760e01b815282908181600481836001600160a01b0388165af18015610d5557610d3d575b5050604051610bae81611a44565b60018060a01b0382168152600360208201913383526040810142815260608201936001855260075487526005602052604087209260018060a01b039051166001600160601b0360a01b9081855416178455600184019160018060a01b0390511690825416179055516002820155019051151560ff801983541691161790553382526006602052604082206007549080549068010000000000000000821015610d295790610c6091600182018155611ab2565b819291549060031b91821b91600019901b1916179055610cb86007546040514281523390827f2be32c2d062fcb6144b6ef0b65f98c2135f3d028335ced80bad008dbb17101af602060018060a01b03881693a4611ae0565b60075560025480158015610ced575b6001600080516020611dc9833981519152556040516001600160a01b0384168152602090f35b83808093819360018060a01b0360015416908390610d20575bf115610d13578180610cc7565b50604051903d90823e3d90fd5b506108fc610d06565b634e487b7160e01b85526041600452602485fd5b610d4690611a60565b610d51578138610ba0565b5080fd5b6040513d84823e3d90fd5b506108fc610b48565b60405163a9059cbb60e01b81526001600160a01b03848116600483015260643560248301529092602092849260449284929091165af1908115610e26578391610df7575b50610b645760405162461bcd60e51b815260206004820152601f60248201527f546f6b656e207472616e7366657220746f20726166666c65206661696c6564006044820152606490fd5b610e19915060203d602011610e1f575b610e118183611a74565b810190611bfb565b38610dad565b503d610e07565b6040513d85823e3d90fd5b6001600160a01b0381163b15610d51576040516323b872dd60e01b81523060048201526001600160a01b038481166024830152604480359083015290918391839160649183918591165af18015610d5557610e8e575b5050610b64565b610e9790611a60565b610d51578138610e87565b610eab90611a60565b610eb6578238610b28565b8280fd5b6040513d86823e3d90fd5b8880fd5b60405163b06ebf3d60e01b8152600490fd5b60405162461bcd60e51b815260206004820152601760248201527f526166666c652074656d706c617465206e6f74207365740000000000000000006044820152606490fd5b6040516323b872dd60e01b81523360048201523060248201526064803560448301526020908290818b6001600160a01b038a165af1908115610fc4578891610fa5575b506109e85760405162461bcd60e51b8152602060048201526015602482015274151bdad95b881d1c985b9cd9995c8819985a5b1959605a1b6044820152606490fd5b610fbe915060203d602011610e1f57610e118183611a74565b38610f63565b6040513d8a823e3d90fd5b60405162461bcd60e51b815260206004820152602360248201527f5072697a6520616d6f756e74206d75737420626520677265617465722074686160448201526206e20360ec1b6064820152608490fd5b6001600160a01b0384163b15611087576040516323b872dd60e01b815233600482015230602482015260448035908201528781606481836001600160a01b038a165af18015610fc457611074575b506109e8565b61108090979197611a60565b953861106e565b8680fd5b60405162461bcd60e51b8152602060048201526014602482015273125b9cdd59999a58da595b9d081c185e5b595b9d60621b6044820152606490fd5b606435156110e1576110dc9060643590611bee565b6109c5565b60405162461bcd60e51b815260206004820152603060248201527f4e617469766520746f6b656e207072697a6520616d6f756e74206d757374206260448201526f0652067726561746572207468616e20360841b6064820152608490fd5b506001600160a01b038516156109c0565b60405162461bcd60e51b815260206004820152602360248201527f5469636b6574207072696365206d75737420626520677265617465722074686160448201526206e20360ec1b6064820152608490fd5b60405162461bcd60e51b81526020600482015260116024820152704475726174696f6e20746f6f206c6f6e6760781b6044820152606490fd5b60405162461bcd60e51b815260206004820152602260248201527f4475726174696f6e206d757374206265206174206c656173742031206d696e75604482015261746560f01b6064820152608490fd5b604051633ee5aeb560e01b8152600490fd5b8480fd5b8380fd5b503461020b578060031936011261020b5761125d611ccb565b600080516020611da983398151915280546001600160a01b0319811690915581906001600160a01b03167f8be0079c531659141344cd1fd0a4f28419497f9722a3daafe3b4186f6b6457e08280a380f35b503461020b57602036600319011261020b576040608091600435815260056020522060018060a01b039081815416916001820154169060ff6003600283015492015416916040519384526020840152604083015215156060820152f35b503461020b578060031936011261020b576004546040516001600160a01b039091168152602090f35b503461020b578060031936011261020b577f00000000000000000000000000000000000000000000000000000000000000006001600160a01b0316300361139f5760206040517f360894a13ba1a3210667c828492db98dca3e2076cc3735a920a3ca505d382bbc8152f35b60405163703e46dd60e11b8152600490fd5b50604036600319011261020b576113c6611a18565b602491823567ffffffffffffffff8111610d515736602382011215610d515780600401356113f381611a96565b936114016040519586611a74565b818552602091828601933688838301011161161257818692898693018737870101526001600160a01b037f000000000000000000000000000000000000000000000000000000000000000081163081149081156115e4575b5061139f57611466611ccb565b8116946040517fbc7cd75a20ee27fd9adebab32041f755214dbc6bffa90cc0225b39da2e5c2d3b9087828880a26352d1902d60e01b815284816004818b5afa8791816115b1575b506114ca57604051634c9c8ce360e01b8152600481018990528990fd5b8790897f360894a13ba1a3210667c828492db98dca3e2076cc3735a920a3ca505d382bbc9182810361159c5750853b15611586575080546001600160a01b031916821790556040518793929091908480a2815115611568575061155b9482915190845af4903d1561155f573d61153f81611a96565b9061154d6040519283611a74565b81528581943d92013e611d45565b5080f35b60609250611d45565b94505050505034611577575080f35b63b398979f60e01b8152600490fd5b604051634c9c8ce360e01b815260048101849052fd5b60405190632a87526960e21b82526004820152fd5b9091508581813d83116115dd575b6115c98183611a74565b810103126115d9575190386114ad565b8780fd5b503d6115bf565b9050817f360894a13ba1a3210667c828492db98dca3e2076cc3735a920a3ca505d382bbc5416141538611459565b8580fd5b503461020b578060031936011261020b576003546040516001600160a01b039091168152602090f35b503461020b578060031936011261020b57611658611ccb565b4780156116895760015482918291829182916001600160a01b031682f11561167d5780f35b604051903d90823e3d90fd5b60405162461bcd60e51b81526020600482015260136024820152724e6f206665657320746f20776974686472617760681b6044820152606490fd5b503461020b57604036600319011261020b576116de611a18565b6116e6611a2e565b906116ef611ccb565b6001600160a01b0390811691611706831515611b56565b1690611713821515611ba2565b816001600160601b0360a01b8281600354161760035560045416176004557fb715e64a335e20dcc9f7c3a839e99c361db69e319ef9403411b974141abec5eb8380a380f35b503461020b578060031936011261020b576008546040516001600160a01b039091168152602090f35b503461020b578060031936011261020b5760075481805b8281106118f757506117c26117ac82611b05565b916117ba6040519384611a74565b808352611b05565b60209290601f1901845b8181106118db57505083845b828110611855575050506040519180830190808452825180925280604085019301945b8281106118085784840385f35b909192826080826118466001948a516060809160018060a01b0380825116855260208201511660208501526040810151604085015201511515910152565b019601910194929190946117fb565b8086949652600585526040842060ff6003820154168061187d575b50506001019492946117d8565b926118d3916001939460026040519261189584611a44565b868060a01b0380825416855287820154168b85015201546040830152151560608201526118c2828a611b42565b526118cd8189611b42565b50611ae0565b919038611870565b84906118e8969496611b1d565b828289010152019492946117cc565b8084929452600560205260ff60036040842001541661191c575b600101929092611798565b92611928600191611ae0565b939050611911565b503461020b578060031936011261020b576020600754604051908152f35b503461020b57602080600319360112610d51576001600160a01b03611971611a18565b168252600681526040822060405192838383549182815201908193835284832090835b8181106119e857505050846119aa910385611a74565b60405193838594850191818652518092526040850193925b8281106119d157505050500390f35b8351855286955093810193928101926001016119c2565b825484529286019260019283019201611994565b905034610d515781600319360112610d51576020906002548152f35b600435906001600160a01b038216820361047457565b602435906001600160a01b038216820361047457565b6080810190811067ffffffffffffffff82111761077b57604052565b67ffffffffffffffff811161077b57604052565b90601f8019910116810190811067ffffffffffffffff82111761077b57604052565b67ffffffffffffffff811161077b57601f01601f191660200190565b8054821015611aca5760005260206000200190600090565b634e487b7160e01b600052603260045260246000fd5b6000198114611aef5760010190565b634e487b7160e01b600052601160045260246000fd5b67ffffffffffffffff811161077b5760051b60200190565b60405190611b2a82611a44565b60006060838281528260208201528260408201520152565b8051821015611aca5760209160051b010190565b15611b5d57565b60405162461bcd60e51b815260206004820152601760248201527f496e76616c696420656e74726f707920616464726573730000000000000000006044820152606490fd5b15611ba957565b60405162461bcd60e51b815260206004820152601860248201527f496e76616c696420656e74726f70792070726f766964657200000000000000006044820152606490fd5b91908201809211611aef57565b90816020910312610474575180151581036104745790565b15611c1a57565b60405162461bcd60e51b8152602060048201526015602482015274149859999b1948191bd95cc81b9bdd08195e1a5cdd605a1b6044820152606490fd5b6001600160a01b03908116908115611cb257600080516020611da983398151915280546001600160a01b031981168417909155167f8be0079c531659141344cd1fd0a4f28419497f9722a3daafe3b4186f6b6457e0600080a3565b604051631e4fbdf760e01b815260006004820152602490fd5b600080516020611da9833981519152546001600160a01b03163303611cec57565b60405163118cdaa760e01b8152336004820152602490fd5b60ff7ff0c57e16840df040f15088dc2f81fe391c3923bec73e23a9662efc9c229c6a005460401c1615611d3357565b604051631afcd79f60e31b8152600490fd5b90611d6c5750805115611d5a57602081519101fd5b60405163d6bda27560e01b8152600490fd5b81511580611d9f575b611d7d575090565b604051639996b31560e01b81526001600160a01b039091166004820152602490fd5b50803b15611d7556fe9016d09d72d40fdae2fd8ceac6b6234c7706214fd39c1cd1e609a0528c1993009b779b17422d0df92223018b32b4d1fa46e071723d6817e2486d003becc55f00a26469706673582212204a1dbefc8ca6f9e3b4c326166e3b498a39446c75319248d2cf4d42c8108a0f0364736f6c63430008160033",
  "linkReferences": {},
  "deployedLinkReferences": {}
}