{
  "_format": "hh-sol-artifact-1",
  "contractName": "Raffle",
  "sourceName": "contracts/Raffle.sol",
  "abi": [
    {
      "inputs": [],
      "stateMutability": "nonpayable",
      "type": "constructor"
    },
    {
      "inputs": [
        {
          "internalType": "address",
          "name": "owner",
          "type": "address"
        }
      ],
      "name": "OwnableInvalidOwner",
      "type": "error"
    },
    {
      "inputs": [
        {
          "internalType": "address",
          "name": "account",
          "type": "address"
        }
      ],
      "name": "OwnableUnauthorizedAccount",
      "type": "error"
    },
    {
      "inputs": [],
      "name": "ReentrancyGuardReentrantCall",
      "type": "error"
    },
    {
      "anonymous": false,
      "inputs": [
        {
          "indexed": true,
          "internalType": "address",
          "name": "owner",
          "type": "address"
        },
        {
          "indexed": false,
          "internalType": "uint256",
          "name": "totalRefunded",
          "type": "uint256"
        }
      ],
      "name": "EmergencyFundsRefunded",
      "type": "event"
    },
    {
      "anonymous": false,
      "inputs": [
        {
          "indexed": true,
          "internalType": "address",
          "name": "owner",
          "type": "address"
        }
      ],
      "name": "EmergencyPrizeWithdrawal",
      "type": "event"
    },
    {
      "anonymous": false,
      "inputs": [
        {
          "indexed": true,
          "internalType": "address",
          "name": "owner",
          "type": "address"
        },
        {
          "indexed": false,
          "internalType": "uint256",
          "name": "amount",
          "type": "uint256"
        }
      ],
      "name": "EmergencyWithdrawal",
      "type": "event"
    },
    {
      "anonymous": false,
      "inputs": [
        {
          "indexed": true,
          "internalType": "address",
          "name": "owner",
          "type": "address"
        },
        {
          "indexed": false,
          "internalType": "uint256",
          "name": "amount",
          "type": "uint256"
        }
      ],
      "name": "FeesWithdrawn",
      "type": "event"
    },
    {
      "anonymous": false,
      "inputs": [
        {
          "indexed": true,
          "internalType": "address",
          "name": "previousOwner",
          "type": "address"
        },
        {
          "indexed": true,
          "internalType": "address",
          "name": "newOwner",
          "type": "address"
        }
      ],
      "name": "OwnershipTransferred",
      "type": "event"
    },
    {
      "anonymous": false,
      "inputs": [
        {
          "indexed": true,
          "internalType": "address",
          "name": "winner",
          "type": "address"
        }
      ],
      "name": "PrizeClaimed",
      "type": "event"
    },
    {
      "anonymous": false,
      "inputs": [
        {
          "indexed": true,
          "internalType": "address",
          "name": "creator",
          "type": "address"
        }
      ],
      "name": "PrizeRefunded",
      "type": "event"
    },
    {
      "anonymous": false,
      "inputs": [],
      "name": "RaffleCancelled",
      "type": "event"
    },
    {
      "anonymous": false,
      "inputs": [
        {
          "indexed": false,
          "internalType": "uint256",
          "name": "newEndTime",
          "type": "uint256"
        }
      ],
      "name": "RaffleExtended",
      "type": "event"
    },
    {
      "anonymous": false,
      "inputs": [
        {
          "indexed": true,
          "internalType": "uint64",
          "name": "sequenceNumber",
          "type": "uint64"
        }
      ],
      "name": "RandomnessRequested",
      "type": "event"
    },
    {
      "anonymous": false,
      "inputs": [
        {
          "indexed": true,
          "internalType": "uint64",
          "name": "sequenceNumber",
          "type": "uint64"
        },
        {
          "indexed": false,
          "internalType": "uint256",
          "name": "randomValue",
          "type": "uint256"
        }
      ],
      "name": "RandomnessResolved",
      "type": "event"
    },
    {
      "anonymous": false,
      "inputs": [
        {
          "indexed": true,
          "internalType": "address",
          "name": "buyer",
          "type": "address"
        },
        {
          "indexed": false,
          "internalType": "uint256",
          "name": "amount",
          "type": "uint256"
        }
      ],
      "name": "TicketsPurchased",
      "type": "event"
    },
    {
      "anonymous": false,
      "inputs": [
        {
          "indexed": true,
          "internalType": "address",
          "name": "participant",
          "type": "address"
        },
        {
          "indexed": false,
          "internalType": "uint256",
          "name": "amount",
          "type": "uint256"
        }
      ],
      "name": "TicketsRefunded",
      "type": "event"
    },
    {
      "anonymous": false,
      "inputs": [
        {
          "indexed": true,
          "internalType": "address",
          "name": "winner",
          "type": "address"
        }
      ],
      "name": "WinnerDrawn",
      "type": "event"
    },
    {
      "inputs": [
        {
          "internalType": "uint64",
          "name": "sequence",
          "type": "uint64"
        },
        {
          "internalType": "address",
          "name": "provider",
          "type": "address"
        },
        {
          "internalType": "bytes32",
          "name": "randomNumber",
          "type": "bytes32"
        }
      ],
      "name": "_entropyCallback",
      "outputs": [],
      "stateMutability": "nonpayable",
      "type": "function"
    },
    {
      "inputs": [
        {
          "internalType": "uint256",
          "name": "_amount",
          "type": "uint256"
        }
      ],
      "name": "buyTickets",
      "outputs": [],
      "stateMutability": "payable",
      "type": "function"
    },
    {
      "inputs": [],
      "name": "claimPrize",
      "outputs": [],
      "stateMutability": "nonpayable",
      "type": "function"
    },
    {
      "inputs": [],
      "name": "depositPrize",
      "outputs": [],
      "stateMutability": "nonpayable",
      "type": "function"
    },
    {
      "inputs": [],
      "name": "emergencyCancelRaffle",
      "outputs": [],
      "stateMutability": "nonpayable",
      "type": "function"
    },
    {
      "inputs": [],
      "name": "emergencyWithdrawFunds",
      "outputs": [],
      "stateMutability": "nonpayable",
      "type": "function"
    },
    {
      "inputs": [],
      "name": "emergencyWithdrawPrize",
      "outputs": [],
      "stateMutability": "nonpayable",
      "type": "function"
    },
    {
      "inputs": [],
      "name": "entropySequenceNumber",
      "outputs": [
        {
          "internalType": "uint64",
          "name": "",
          "type": "uint64"
        }
      ],
      "stateMutability": "view",
      "type": "function"
    },
    {
      "inputs": [
        {
          "internalType": "uint256",
          "name": "_days",
          "type": "uint256"
        }
      ],
      "name": "extendRaffle",
      "outputs": [],
      "stateMutability": "nonpayable",
      "type": "function"
    },
    {
      "inputs": [],
      "name": "factoryAddress",
      "outputs": [
        {
          "internalType": "address",
          "name": "",
          "type": "address"
        }
      ],
      "stateMutability": "view",
      "type": "function"
    },
    {
      "inputs": [],
      "name": "getCurrentPlatformFeePercentage",
      "outputs": [
        {
          "internalType": "uint256",
          "name": "",
          "type": "uint256"
        }
      ],
      "stateMutability": "view",
      "type": "function"
    },
    {
      "inputs": [],
      "name": "getCurrentPlatformWallet",
      "outputs": [
        {
          "internalType": "address",
          "name": "",
          "type": "address"
        }
      ],
      "stateMutability": "view",
      "type": "function"
    },
    {
      "inputs": [],
      "name": "getFactoryOwner",
      "outputs": [
        {
          "internalType": "address",
          "name": "",
          "type": "address"
        }
      ],
      "stateMutability": "view",
      "type": "function"
    },
    {
      "inputs": [],
      "name": "getParticipantCount",
      "outputs": [
        {
          "internalType": "uint256",
          "name": "",
          "type": "uint256"
        }
      ],
      "stateMutability": "view",
      "type": "function"
    },
    {
      "inputs": [],
      "name": "getParticipants",
      "outputs": [
        {
          "internalType": "address[]",
          "name": "",
          "type": "address[]"
        }
      ],
      "stateMutability": "view",
      "type": "function"
    },
    {
      "inputs": [],
      "name": "getRaffleInfo",
      "outputs": [
        {
          "components": [
            {
              "internalType": "address",
              "name": "owner",
              "type": "address"
            },
            {
              "internalType": "enum Raffle.PrizeType",
              "name": "prizeType",
              "type": "uint8"
            },
            {
              "internalType": "address",
              "name": "prizeContractAddress",
              "type": "address"
            },
            {
              "internalType": "uint256",
              "name": "prizeTokenId",
              "type": "uint256"
            },
            {
              "internalType": "uint256",
              "name": "prizeAmount",
              "type": "uint256"
            },
            {
              "internalType": "bool",
              "name": "prizeInEscrow",
              "type": "bool"
            },
            {
              "internalType": "uint256",
              "name": "ticketPrice",
              "type": "uint256"
            },
            {
              "internalType": "address",
              "name": "ticketTokenAddress",
              "type": "address"
            },
            {
              "internalType": "uint256",
              "name": "maxTicketsPerWallet",
              "type": "uint256"
            },
            {
              "internalType": "uint256",
              "name": "maxTotalTickets",
              "type": "uint256"
            },
            {
              "internalType": "uint256",
              "name": "endTime",
              "type": "uint256"
            },
            {
              "internalType": "address",
              "name": "winner",
              "type": "address"
            },
            {
              "internalType": "enum Raffle.RaffleStatus",
              "name": "status",
              "type": "uint8"
            },
            {
              "internalType": "bool",
              "name": "participantsVisible",
              "type": "bool"
            },
            {
              "internalType": "bool",
              "name": "participantCountVisible",
              "type": "bool"
            },
            {
              "internalType": "uint256",
              "name": "totalTicketsSold",
              "type": "uint256"
            },
            {
              "internalType": "uint256",
              "name": "platformFeePercentage",
              "type": "uint256"
            },
            {
              "internalType": "address",
              "name": "platformFeeWallet",
              "type": "address"
            }
          ],
          "internalType": "struct Raffle.RaffleInfo",
          "name": "",
          "type": "tuple"
        }
      ],
      "stateMutability": "view",
      "type": "function"
    },
    {
      "inputs": [],
      "name": "getRandomnessStatus",
      "outputs": [
        {
          "internalType": "uint64",
          "name": "_sequenceNumber",
          "type": "uint64"
        },
        {
          "internalType": "bool",
          "name": "_requested",
          "type": "bool"
        },
        {
          "internalType": "bool",
          "name": "_resolved",
          "type": "bool"
        }
      ],
      "stateMutability": "view",
      "type": "function"
    },
    {
      "inputs": [],
      "name": "getTicketAvailability",
      "outputs": [
        {
          "internalType": "uint256",
          "name": "remainingTotal",
          "type": "uint256"
        },
        {
          "internalType": "uint256",
          "name": "remainingPerWallet",
          "type": "uint256"
        }
      ],
      "stateMutability": "view",
      "type": "function"
    },
    {
      "inputs": [
        {
          "internalType": "address",
          "name": "_user",
          "type": "address"
        }
      ],
      "name": "getWinChance",
      "outputs": [
        {
          "internalType": "uint256",
          "name": "",
          "type": "uint256"
        }
      ],
      "stateMutability": "view",
      "type": "function"
    },
    {
      "inputs": [
        {
          "internalType": "address",
          "name": "",
          "type": "address"
        }
      ],
      "name": "hasParticipated",
      "outputs": [
        {
          "internalType": "bool",
          "name": "",
          "type": "bool"
        }
      ],
      "stateMutability": "view",
      "type": "function"
    },
    {
      "inputs": [
        {
          "internalType": "address",
          "name": "_owner",
          "type": "address"
        },
        {
          "internalType": "enum Raffle.PrizeType",
          "name": "_prizeType",
          "type": "uint8"
        },
        {
          "internalType": "address",
          "name": "_prizeContractAddress",
          "type": "address"
        },
        {
          "internalType": "uint256",
          "name": "_prizeTokenId",
          "type": "uint256"
        },
        {
          "internalType": "uint256",
          "name": "_prizeAmount",
          "type": "uint256"
        },
        {
          "internalType": "uint256",
          "name": "_ticketPrice",
          "type": "uint256"
        },
        {
          "internalType": "address",
          "name": "_ticketTokenAddress",
          "type": "address"
        },
        {
          "internalType": "uint256",
          "name": "_maxTicketsPerWallet",
          "type": "uint256"
        },
        {
          "internalType": "uint256",
          "name": "_maxTotalTickets",
          "type": "uint256"
        },
        {
          "internalType": "uint256",
          "name": "_endTime",
          "type": "uint256"
        },
        {
          "internalType": "bool",
          "name": "_participantsVisible",
          "type": "bool"
        },
        {
          "internalType": "bool",
          "name": "_participantCountVisible",
          "type": "bool"
        },
        {
          "internalType": "uint256",
          "name": "_platformFeePercentage",
          "type": "uint256"
        },
        {
          "internalType": "address",
          "name": "_platformFeeWallet",
          "type": "address"
        },
        {
          "internalType": "address",
          "name": "_factoryAddress",
          "type": "address"
        }
      ],
      "name": "initialize",
      "outputs": [],
      "stateMutability": "nonpayable",
      "type": "function"
    },
    {
      "inputs": [],
      "name": "markPrizeInEscrow",
      "outputs": [],
      "stateMutability": "nonpayable",
      "type": "function"
    },
    {
      "inputs": [
        {
          "internalType": "address",
          "name": "",
          "type": "address"
        },
        {
          "internalType": "address",
          "name": "",
          "type": "address"
        },
        {
          "internalType": "uint256",
          "name": "",
          "type": "uint256"
        },
        {
          "internalType": "bytes",
          "name": "",
          "type": "bytes"
        }
      ],
      "name": "onERC721Received",
      "outputs": [
        {
          "internalType": "bytes4",
          "name": "",
          "type": "bytes4"
        }
      ],
      "stateMutability": "pure",
      "type": "function"
    },
    {
      "inputs": [],
      "name": "owner",
      "outputs": [
        {
          "internalType": "address",
          "name": "",
          "type": "address"
        }
      ],
      "stateMutability": "view",
      "type": "function"
    },
    {
      "inputs": [
        {
          "internalType": "uint256",
          "name": "",
          "type": "uint256"
        }
      ],
      "name": "participants",
      "outputs": [
        {
          "internalType": "address",
          "name": "",
          "type": "address"
        }
      ],
      "stateMutability": "view",
      "type": "function"
    },
    {
      "inputs": [],
      "name": "raffleInfo",
      "outputs": [
        {
          "internalType": "address",
          "name": "owner",
          "type": "address"
        },
        {
          "internalType": "enum Raffle.PrizeType",
          "name": "prizeType",
          "type": "uint8"
        },
        {
          "internalType": "address",
          "name": "prizeContractAddress",
          "type": "address"
        },
        {
          "internalType": "uint256",
          "name": "prizeTokenId",
          "type": "uint256"
        },
        {
          "internalType": "uint256",
          "name": "prizeAmount",
          "type": "uint256"
        },
        {
          "internalType": "bool",
          "name": "prizeInEscrow",
          "type": "bool"
        },
        {
          "internalType": "uint256",
          "name": "ticketPrice",
          "type": "uint256"
        },
        {
          "internalType": "address",
          "name": "ticketTokenAddress",
          "type": "address"
        },
        {
          "internalType": "uint256",
          "name": "maxTicketsPerWallet",
          "type": "uint256"
        },
        {
          "internalType": "uint256",
          "name": "maxTotalTickets",
          "type": "uint256"
        },
        {
          "internalType": "uint256",
          "name": "endTime",
          "type": "uint256"
        },
        {
          "internalType": "address",
          "name": "winner",
          "type": "address"
        },
        {
          "internalType": "enum Raffle.RaffleStatus",
          "name": "status",
          "type": "uint8"
        },
        {
          "internalType": "bool",
          "name": "participantsVisible",
          "type": "bool"
        },
        {
          "internalType": "bool",
          "name": "participantCountVisible",
          "type": "bool"
        },
        {
          "internalType": "uint256",
          "name": "totalTicketsSold",
          "type": "uint256"
        },
        {
          "internalType": "uint256",
          "name": "platformFeePercentage",
          "type": "uint256"
        },
        {
          "internalType": "address",
          "name": "platformFeeWallet",
          "type": "address"
        }
      ],
      "stateMutability": "view",
      "type": "function"
    },
    {
      "inputs": [],
      "name": "refundPrizeToCreator",
      "outputs": [],
      "stateMutability": "nonpayable",
      "type": "function"
    },
    {
      "inputs": [],
      "name": "renounceOwnership",
      "outputs": [],
      "stateMutability": "nonpayable",
      "type": "function"
    },
    {
      "inputs": [],
      "name": "requestRandomness",
      "outputs": [],
      "stateMutability": "payable",
      "type": "function"
    },
    {
      "inputs": [],
      "name": "settleRandomness",
      "outputs": [],
      "stateMutability": "nonpayable",
      "type": "function"
    },
    {
      "inputs": [
        {
          "internalType": "address",
          "name": "",
          "type": "address"
        }
      ],
      "name": "tickets",
      "outputs": [
        {
          "internalType": "uint256",
          "name": "",
          "type": "uint256"
        }
      ],
      "stateMutability": "view",
      "type": "function"
    },
    {
      "inputs": [
        {
          "internalType": "address",
          "name": "newOwner",
          "type": "address"
        }
      ],
      "name": "transferOwnership",
      "outputs": [],
      "stateMutability": "nonpayable",
      "type": "function"
    },
    {
      "inputs": [],
      "name": "withdrawFees",
      "outputs": [],
      "stateMutability": "nonpayable",
      "type": "function"
    },
    {
      "stateMutability": "payable",
      "type": "receive"
    }
  ],
  "bytecode": "0x6080806040523461005c576001600081815581546001600160a01b03198116831783556001600160a01b0316907f8be0079c531659141344cd1fd0a4f28419497f9722a3daafe3b4186f6b6457e09080a36135a390816100628239f35b600080fdfe6080604052600436101561001b575b361561001957600080fd5b005b6000803560e01c806301cea35014612ca85780630fb5b15714612b9257806312731f1714612865578063150b7a02146127fa5780632f3666371461248857806335c1d3491461244457806338632437146123d5578063476343ee146120cb5780634e08327814611f3b57806352a5f1f814611bc457806355889d741461179a5780635aa68ac0146116815780635bf2764f1461161b57806369b947e0146115d85780636dcbf2a31461159f57806370740ac91461140e57806370ea133f14610fe1578063715018a614610f835780638166f6b214610cde5780638da5cb5b14610cb5578063966dae0e14610c8c578063abec573614610c68578063ad60572914610bf7578063af3a953714610935578063b4fb3ee3146108f6578063b668054014610712578063d8e9c05b146106f7578063de496650146106d4578063df41fee31461066a578063e09bda6b1461063d578063e788b57914610615578063f2fde38b146105bf5763f8413b0714610192575061000e565b806003193601126105bc57600b544210600a5480151590816105af575b508115916105a7575b5015610563576002546001600160a01b0390811633148015610551575b156104f05760ff600c5460a01c1660038110156104dc57610497576101fd600d541515612f1b565b60ff60145460401c16610452578060105416906040518092634bb7b59960e01b825281600460209586935afa90811561041a578491610425575b5016610244811515613055565b6040516341025b3d60e11b81528281600481855afa801561041a5784906103d2575b6001600160801b039150169081341061038d579080838593600460405180948193637b43155d60e01b83525af1938415610382578394610346575b505067ffffffffffffffff80931667ffffffffffffffff19601454161760145580341161030c575b5050601454600160401b68ff000000000000000019821617601455167f21375f3d45f34ba59df13f786f613073e082f6c83c0eb2ef6eb83c89c22b8ec88280a280f35b8180610319819334612f59565b81811561033d575b3390f1156103305781386102c9565b50604051903d90823e3d90fd5b506108fc610321565b9080929450813d831161037b575b61035e8183612ee0565b810103126103775761036f9061327a565b9138806102a1565b5080fd5b503d610354565b6040513d85823e3d90fd5b60405162461bcd60e51b815260048101849052601860248201527f496e73756666696369656e7420656e74726f70792066656500000000000000006044820152606490fd5b508281813d8311610413575b6103e88183612ee0565b8101031261040f57516001600160801b038116810361040f576001600160801b0390610266565b8380fd5b503d6103de565b6040513d86823e3d90fd5b6104459150833d851161044b575b61043d8183612ee0565b810190613036565b38610237565b503d610433565b60405162461bcd60e51b815260206004820152601c60248201527f52616e646f6d6e65737320616c726561647920726571756573746564000000006044820152606490fd5b60405162461bcd60e51b815260206004820152601a60248201527f416c726561647920647261776e206f722063616e63656c6c65640000000000006044820152606490fd5b634e487b7160e01b83526021600452602483fd5b60405162461bcd60e51b815260206004820152603360248201527f4f6e6c79206f776e6572206f7220706c6174666f726d2061646d696e2063616e60448201527220726571756573742072616e646f6d6e65737360681b6064820152608490fd5b508061055b61321c565b1633146101d5565b606460405162461bcd60e51b815260206004820152602060248201527f526166666c65207374696c6c2061637469766520616e64206e6f742066756c6c6044820152fd5b9050386101b8565b9050600d541015386101af565b80fd5b50346105bc5760203660031901126105bc576105d9612dc0565b6105e161328f565b6001600160a01b038116156105fc576105f9906132bb565b80f35b604051631e4fbdf760e01b815260048101839052602490fd5b50346105bc57806003193601126105bc57602067ffffffffffffffff60145416604051908152f35b50346105bc57806003193601126105bc57602061065861321c565b6040516001600160a01b039091168152f35b50346105bc57806003193601126105bc57600a546040919080156106ca57600d5461069491612f59565b905b60095480156106c057836106b4923381526011602052205490612f59565b82519182526020820152f35b50506000196106b4565b5060001990610696565b50346105bc57806003193601126105bc5760206106ef6131aa565b604051908152f35b50346105bc57806003193601126105bc57602061065861313d565b50346105bc57806003193601126105bc5761072b61321c565b6001600160a01b03906107419082163314612f66565b610749613304565b60065461075860ff82166130fc565b60ff191660065560025460ff8160a01c1660028110156108e25760010361082257508181600354168260025416600454823b1561040f57604051632142170760e11b81523060048201526001600160a01b0392909216602483015260448201529082908290606490829084905af1801561081757610803575b50505b600254167fd67c3eb57ae60fdd796a78b751609cb1bab8d1251440cce9b150f548e08fef028280a26001815580f35b61080c90612ecc565b6103775781386107d1565b6040513d84823e3d90fd5b60035482168061085e57505081808080846002541660055490828215610855575bf16107d45750604051903d90823e3d90fd5b506108fc610843565b60055460405163a9059cbb60e01b81529284166001600160a01b03166004840152602483015260209082908186816044810103925af18015610382576108a5575b506107d4565b6020813d6020116108da575b816108be60209383612ee0565b810103126108d6576108cf90612f0e565b503861089f565b8280fd5b3d91506108b1565b634e487b7160e01b84526021600452602484fd5b50346105bc5760203660031901126105bc5760209060ff906040906001600160a01b03610921612dc0565b168152601384522054166040519015158152f35b50346105bc57806003193601126105bc5761094e613304565b6002546001600160a01b0390818116903382148015610be5575b15610b8e576006549061097d60ff83166130fc565b600d54610b5257600b544210610b175760ff19909116600655600c805460ff60a01b1916600160a11b17905560a01c60ff1660028110156108e257600103610a5d57508181600354168260025416600454823b1561040f57604051632142170760e11b81523060048201526001600160a01b0392909216602483015260448201529082908290606490829084905af1801561081757610a49575b50505b600254167f17b845f7524632cc2011d10633c1cc449fbb591416c3a4ce29bcc4f9b342637d8280a26001815580f35b610a5290612ecc565b610377578138610a17565b600354821680610a9957505081808080846002541660055490828215610a90575bf1610a1a5750604051903d90823e3d90fd5b506108fc610a7e565b60055460405163a9059cbb60e01b81526001600160a01b0393909316600484015260248301526020908290604490829087905af1801561038257610ade575b50610a1a565b6020813d602011610b0f575b81610af760209383612ee0565b810103126108d657610b0890612f0e565b5038610ad8565b3d9150610aea565b60405162461bcd60e51b8152602060048201526013602482015272526166666c65207374696c6c2061637469766560681b6044820152606490fd5b60405162461bcd60e51b8152602060048201526014602482015273151a58dad95d1cc8185b1c9958591e481cdbdb1960621b6044820152606490fd5b60405162461bcd60e51b815260206004820152602960248201527f4f6e6c792063726561746f72206f7220706c6174666f726d2061646d696e2063604482015268185b881c99599d5b9960ba1b6064820152608490fd5b5082610bef61321c565b163314610968565b50346105bc57806003193601126105bc5760ff600c5460b01c1615610c23576020601254604051908152f35b60405162461bcd60e51b815260206004820152601d60248201527f5061727469636970616e7420636f756e74206e6f742076697369626c650000006044820152606490fd5b50346105bc5760203660031901126105bc5760206106ef610c87612dc0565b6130ba565b50346105bc57806003193601126105bc576010546040516001600160a01b039091168152602090f35b50346105bc57806003193601126105bc576001546040516001600160a01b039091168152602090f35b50346105bc57806003193601126105bc57610220604051610cfe81612eaf565b8281528260208201528260408201528260608201528260808201528260a08201528260c08201528260e08201528261010082015282610120820152826101408201528261016082015282610180820152826101a0820152826101c0820152826101e0820152826102008201520152604051610d7881612eaf565b6002546001600160a01b0381168252610d9a9060a01c60ff1660208301612f02565b600380546001600160a01b0390811660408401526004546060840152600554608084015260065460ff908116151560a08581019190915260075460c0860152600854831660e0860152600954610100860152600a54610120860152600b54610140860152600c549283166101608601529193929184901c161015610f6d5760ff82816102409460a01c16610180840152818160a81c1615156101a084015260b01c1615156101c0820152600d546101e0820152600e5461020082015260018060a01b03600f54166102208201526040519060018060a01b038151168252610e8960208201516020840190612da6565b60018060a01b036040820151166040830152606081015160608301526080810151608083015260a0810151151560a083015260c081015160c083015260018060a01b0360e08201511660e083015261010081015161010083015261012081015161012083015261014081015161014083015260018060a01b0361016082015116610160830152610f23610180820151610180840190612db3565b6101a081015115156101a08301526101c081015115156101c08301526101e08101516101e083015261020081015161020083015261022060018060a01b0391015116610220820152f35b634e487b7160e01b600052602160045260246000fd5b50346105bc57806003193601126105bc57610f9c61328f565b600180546001600160a01b031981169091556000906001600160a01b03167f8be0079c531659141344cd1fd0a4f28419497f9722a3daafe3b4186f6b6457e08280a380f35b50346105bc57806003193601126105bc57610ffa613304565b67ffffffffffffffff8060145416611013811515612fea565b600c549160ff8360a01c1660038110156113fa576110319015612e39565b6001600160a01b03908382166113be57600d5491611050831515612f1b565b61105e60ff60065416612fa8565b601054604051634bb7b59960e01b8152602094918316908581600481855afa9081156113935786908a9261139e575b506040516316fd052b60e21b81529192829060049082905afa80156113935784918a91611376575b506110c38284161515613055565b168015611331576040519186830191623aa51b60e91b835260248401528760448401526044835260808301918383108784111761131b578a93849360405251915afa3d15611312573d9384116112fe576040519361112a601f8201601f1916870186612ee0565b84523d888686013e5b156112c157828051610120918291810103126112bd576111548585016134bf565b506111616040850161327a565b50606084015163ffffffff8116036112bd5760808401519361118560a0820161327a565b5061119260c082016134bf565b5061119f60e08201612f0e565b5061010081015160ff8116036112b957015161ffff8116036112b557821561127057906111f76111f284937f0829d2d9c0e7eb872c4e1f2370e85a54c85be04083531089738cc574ae1af12e969561309a565b6134d3565b6001600160a81b03199096169516948517600160a01b17600c55604051908152a2807fb1899e5911a12372a7fa329d3051f8358e8f5156f66bcf69707ea096419681b78380a2611245613327565b7f09f058359c5a4d11027ce8027f5f0f4df210cb3ebac92f2c584170ed78624dd88280a26001815580f35b60405162461bcd60e51b815260048101859052601c60248201527f52616e646f6d6e657373206e6f7420617661696c61626c6520796574000000006044820152606490fd5b8680fd5b8880fd5b8780fd5b60405162461bcd60e51b815260048101859052601560248201527411985a5b1959081d1bc819d95d081c995c5d595cdd605a1b6044820152606490fd5b634e487b7160e01b88526041600452602488fd5b60609350611133565b634e487b7160e01b600052604160045260246000fd5b60405162461bcd60e51b815260048101879052601760248201527f50726f7669646572206e6f7420636f6e666967757265640000000000000000006044820152606490fd5b61138d9150873d891161044b5761043d8183612ee0565b386110b5565b6040513d8b823e3d90fd5b600492506113b890823d841161044b5761043d8183612ee0565b9161108d565b60405162461bcd60e51b81526020600482015260146024820152732bb4b73732b91030b63932b0b23c90323930bbb760611b6044820152606490fd5b634e487b7160e01b85526021600452602485fd5b50346105bc57806003193601126105bc57611427613304565b600c5460ff8160a01c1660038110156104dc57600103611563576001600160a01b03908116801561152c5761146060ff60065416612fa8565b3314801561151a575b801561150d575b156114ac5761147d613327565b600c54167f09f058359c5a4d11027ce8027f5f0f4df210cb3ebac92f2c584170ed78624dd88280a26001815580f35b60405162461bcd60e51b815260206004820152603360248201527f4f6e6c792077696e6e65722c2061646d696e2c206f7220726166666c65206f776044820152726e65722063616e20636c61696d207072697a6560681b6064820152608490fd5b5080600254163314611470565b508061152461321c565b163314611469565b60405162461bcd60e51b815260206004820152600f60248201526e2737903bb4b73732b910323930bbb760891b6044820152606490fd5b60405162461bcd60e51b815260206004820152601460248201527315da5b9b995c881b9bdd08191c985ddb881e595d60621b6044820152606490fd5b50346105bc5760203660031901126105bc576020906040906001600160a01b036115c7612dc0565b168152601183522054604051908152f35b50346105bc57806003193601126105bc57606060145460ff6040519167ffffffffffffffff81168352818160401c161515602084015260481c1615156040820152f35b50346105bc57806003193601126105bc576116476001600160a01b0361163f61321c565b163314612f66565b600c805460ff60a01b1916600160a11b1790557f90e8484a98b653b6def19811c0e3811715da0de9c6b90d013442ba7e754129518180a180f35b50346105bc57806003193601126105bc5760ff600c5460a81c16156117555760405180916012549081835260208093018092601283527fbb8a6a4669ba250d26cd7a459eca9d215f8307e33aebe50379bc5a3617ec344490835b81811061173857505050846116f1910385612ee0565b60405193838594850191818652518092526040850193925b82811061171857505050500390f35b83516001600160a01b031685528695509381019392810192600101611709565b82546001600160a01b0316845292860192600192830192016116db565b60405162461bcd60e51b815260206004820152601860248201527f5061727469636970616e7473206e6f742076697369626c6500000000000000006044820152606490fd5b50346105bc57806003193601126105bc576117b361321c565b6001600160a01b03906117c99082163314612f66565b6117d1613304565b6117de600d541515612f1b565b8160075492826008541680156000146119375750805b60125481101561189a578361180882612dec565b90549060031b1c1680835260206011815260408420548061182f575b5050506001016117f4565b6118399088612e79565b94848684828215611891575b839283928392f11561041a576001939291611881877f3edd1ff272ea97def9fad80e63c2aa62496cf7dd22a8919d178b1bbe73e04ed393612ea2565b96604051908152a2903880611824565b506108fc611845565b5092509082478015801561190e575b50505060207f23d6711a1d031134a36921253c75aa59e967d38e369ac625992824315e204f20915b6002541692837f387a50f04cc00a7655bd998f712f87f0382b749aab4fb793dc60d211861de97a83604051848152a2604051908152a26001815580f35b8280928192866002541690839061192e575bf115610817578238806118a9565b506108fc611920565b91815b601254811015611a71578461194e82612dec565b90549060031b1c16808452602060118152604085205480611975575b50505060010161193a565b61197f9089612e79565b60405163a9059cbb60e01b81526001600160a01b03841660048201526024810182905290949082816044818a8c5af18015611a6657908692916119fe575b50916119ee7f3edd1ff272ea97def9fad80e63c2aa62496cf7dd22a8919d178b1bbe73e04ed3926001969594612ea2565b95604051908152a290388061196a565b9091508281813d8311611a5f575b611a168183612ee0565b810103126112b557916119ee867f3edd1ff272ea97def9fad80e63c2aa62496cf7dd22a8919d178b1bbe73e04ed393611a526001989796612f0e565b50929495965092506119bd565b503d611a0c565b6040513d89823e3d90fd5b506040516370a0823160e01b81523060048201529194509291602091908282602481845afa918215611bb9578692611b85575b5081611ad7575b50505060207f23d6711a1d031134a36921253c75aa59e967d38e369ac625992824315e204f20916118d1565b60025460405163a9059cbb60e01b81529085166001600160a01b031660048201526024810192909252909190819083908188816044810103925af18015611b7a57611b23575b80611aab565b81813d8311611b73575b611b378183612ee0565b8101031261040f577f23d6711a1d031134a36921253c75aa59e967d38e369ac625992824315e204f2091611b6c602092612f0e565b5091611b1d565b503d611b2d565b6040513d87823e3d90fd5b9091508281813d8311611bb2575b611b9d8183612ee0565b81010312611bad57519038611aa4565b600080fd5b503d611b93565b6040513d88823e3d90fd5b50346105bc5760603660031901126105bc5760043567ffffffffffffffff908181168091036108d657611bf5612dd6565b50601054604051634bb7b59960e01b80825260209260448035936001600160a01b03939192841691908681600481865afa8015611f305785918b91611f13575b50168015611ecf573303611e7f57859060046040518094819382525afa8015611e745783918991611e57575b50163303611e1c5760145495611c7c60ff8860401c16612fea565b60ff8760481c16611dd85786168503611d955750600c549460ff8660a01c166003811015611d81577f0829d2d9c0e7eb872c4e1f2370e85a54c85be04083531089738cc574ae1af12e94939291611cde69010000000000000000009215612e39565b611cec60ff60065416612fa8565b69ff000000000000000000191617601455611d0c6111f2600d548461309a565b6001600160a81b03199096169516948517600160a01b17600c55604051908152a2807fb1899e5911a12372a7fa329d3051f8358e8f5156f66bcf69707ea096419681b78380a2611d5a613327565b7f09f058359c5a4d11027ce8027f5f0f4df210cb3ebac92f2c584170ed78624dd88280a280f35b634e487b7160e01b88526021600452602488fd5b837f496e76616c69642073657175656e6365206e756d6265720000000000000000006064926040519262461bcd60e51b8452600484015260176024840152820152fd5b60405162461bcd60e51b815260048101869052601b60248201527f52616e646f6d6e65737320616c7265616479207265736f6c766564000000000081840152606490fd5b837413db9b1e48115b9d1c9bdc1e4818d85b8818d85b1b605a1b6064926040519262461bcd60e51b8452600484015260156024840152820152fd5b611e6e9150863d881161044b5761043d8183612ee0565b38611c61565b6040513d8a823e3d90fd5b60405162461bcd60e51b815260048101879052602360248201527f4f6e6c7920456e74726f70792063616e2063616c6c20746869732066756e6374818501526234b7b760e91b6064820152608490fd5b60405162461bcd60e51b815260048101889052601760248201527f456e74726f70792061646472657373206e6f742073657400000000000000000081860152606490fd5b611f2a9150883d8a1161044b5761043d8183612ee0565b38611c35565b6040513d8c823e3d90fd5b50346105bc57806003193601126105bc57611f5461328f565b60ff600654166120865760025460ff8160a01c1660028110156104dc57600103611ffb57506003546002546004546001600160a01b0391821692849216803b156108d657604051632142170760e11b81526001600160a01b0394909416600485015230602485015260448401919091528290606490829084905af1801561081757611fec575b505b600160ff19600654161760065580f35b611ff590612ecc565b38611fda565b6003546005546040516323b872dd60e01b81526001600160a01b039384166004820152306024820152604481019190915291602091839160649183918791165af180156108175761204d575b50611fdc565b6020813d60201161207e575b8161206660209383612ee0565b810103126103775761207790612f0e565b5038612047565b3d9150612059565b60405162461bcd60e51b815260206004820152601760248201527f5072697a6520616c7265616479206465706f73697465640000000000000000006044820152606490fd5b50346105bc57806003193601126105bc576120e4613304565b6002546001600160a01b03908116331480156123c3575b1561236757612119600d54612111811515612f1b565b600754612e79565b908261213a61271061213261212c6131aa565b86612e79565b048094612f59565b928261214461313d565b85826008541680156000146121fa57505082159283156121d1575b5050505082801580156121a8575b50505060207fc0819c13be868895eb93e40eaceb96de976442fa1d404e5c55f14bb65a8c489a915b6002541692604051908152a26001815580f35b828092819286600254169083906121c8575bf1156108175782823861216d565b506108fc6121ba565b84938493849384926121f0575b1690f11561081757823882818061215f565b6108fc92506121de565b9392509350816122e1575b505081612238575b505060207fc0819c13be868895eb93e40eaceb96de976442fa1d404e5c55f14bb65a8c489a91612195565b60025460405163a9059cbb60e01b81529084166001600160a01b03166004820152602481019290925260209082908187816044810103925af1801561041a57612283575b829061220d565b6020813d6020116122d9575b8161229c60209383612ee0565b8101031261040f577fc0819c13be868895eb93e40eaceb96de976442fa1d404e5c55f14bb65a8c489a916122d1602092612f0e565b50915061227c565b3d915061228f565b60405163a9059cbb60e01b81526001600160a01b039190911660048201526024810191909152915060208260448188855af1918215611b7a578492612327575b80612205565b91506020823d60201161235f575b8161234260209383612ee0565b8101031261235b576123548492612f0e565b5038612321565b8480fd5b3d9150612335565b60405162461bcd60e51b815260206004820152602e60248201527f4f6e6c79206f776e6572206f7220706c6174666f726d2061646d696e2063616e60448201526d207769746864726177206665657360901b6064820152608490fd5b50806123cd61321c565b1633146120fb565b50346105bc57806003193601126105bc576002546001600160a01b0316320361240857600160ff19600654161760065580f35b60405162461bcd60e51b815260206004820152601460248201527327b7363c90323ab934b7339031b932b0ba34b7b760611b6044820152606490fd5b50346105bc5760203660031901126105bc57600435906012548210156105bc57602061246f83612dec565b905460405160039290921b1c6001600160a01b03168152f35b50602080600319360112610377576004359060ff600c5460a01c1660038110156108e2576124b69015612e39565b600b544210156127c7576124c8613304565b8115612783576009548061271f575b50600a54806126ae575b506124ee82600754612e79565b6008546001600160a01b0391908590849084168061263d575050503403612601575b3384526013825260ff6040852054161561257c575b508060117fe11731cb4f1eb3ec3dd09bdc96809bb07365f4c881cda3192b397a4bc0b6da4092526040842061255b848254612ea2565b905561256983600d54612ea2565b600d556040519283523392a26001815580f35b601254600160401b8110156125ed57906125be8260017fe11731cb4f1eb3ec3dd09bdc96809bb07365f4c881cda3192b397a4bc0b6da40959401601255612dec565b819291549060031b9133831b921b19161790553384526013815260408420600160ff1982541617905590612525565b634e487b7160e01b85526041600452602485fd5b60405162461bcd60e51b8152600481018390526014602482015273125b98dbdc9c9958dd0811551208185b5bdd5b9d60621b6044820152606490fd5b6040516323b872dd60e01b815233600482015230602482015260448101949094529091839160649183915af18015611b7a5761267a575b50612510565b8281813d83116126a7575b61268f8183612ee0565b8101031261235b576126a090612f0e565b5038612674565b503d612685565b6126ba83600d54612ea2565b116126c557386124e1565b6084906040519062461bcd60e51b82526004820152602d60248201527f45786365656473206d6178696d756d20746f74616c207469636b65747320666f60448201526c72207468697320726166666c6560981b6064820152fd5b33845260118252612734836040862054612ea2565b1161273f57386124d7565b6064906040519062461bcd60e51b82526004820152601e60248201527f45786365656473206d6178207469636b657473207065722077616c6c657400006044820152fd5b6064906040519062461bcd60e51b82526004820152601a60248201527f4d75737420627579206174206c656173742031207469636b65740000000000006044820152fd5b6064906040519062461bcd60e51b82526004820152600c60248201526b149859999b1948195b99195960a21b6044820152fd5b50346105bc5760803660031901126105bc57612814612dc0565b5061281d612dd6565b5060643567ffffffffffffffff8082116108d657366023830112156108d65781600401359081116108d657369101602401116105bc57604051630a85bd0160e11b8152602090f35b50346105bc576101e03660031901126105bc57612880612dc0565b90600260243510156105bc57604435916001600160a01b03831683036103775760c4356001600160a01b03811681036108d65761014435801515810361040f576101643590811515820361235b576101a435926001600160a01b0384168403612b8e576101c4356001600160a01b03811681036112b55760015460ff8160a01c16612b535760ff60a01b1916600160a01b17600155601080546001600160a01b0319166001600160a01b03929092169190911790556040519661294288612eaf565b6001600160a01b038616885261295d60243560208a01612f02565b6001600160a01b0390811660408901526064356060890152608435608089015260a0880187905260a43560c089015290811660e088015260e4356101008801526101043561012088015261012435610140880152610160870186905261018087018690529015156101a08701529015156101c08601526101e0850184905261018435610200860152908116610220850152835160028054602087015190939290921691908110156113fa5760ff60a01b9060a01b16916affffffffffffffffffffff60a81b16171760025560018060a01b036040840151166001600160601b0360a01b60035416176003556060830151600455608083015160055560a0830151151560ff80196006541691161760065560c083015160075560018060a01b0360e0840151166001600160601b0360a01b6008541617600855610100830151600955610120830151600a55610140830151600b5560018060a01b036101608401511692600c546101808201519460038610156113fa576105f9949560ff60a81b6101a0850151151560a81b169160ff60b01b6101c0860151151560b01b169368ffffffffffffffffff60b81b16179060ff60a01b9060a01b16171717600c556101e0810151600d55610200810151600e5561022060018060a01b03910151166001600160601b0360a01b600f541617600f556132bb565b60405162461bcd60e51b8152602060048201526013602482015272105b1c9958591e481a5b9a5d1a585b1a5e9959606a1b6044820152606490fd5b8580fd5b50346105bc57806003193601126105bc57600254600160a01b600190036003541660045460055460065460ff16600754600160a01b6001900360085416600954600a5491600b5493600c5495600d5497600e5499600160a01b60019003600f54169b604051809e600160a01b6001900381168252602082019060a01c60ff1690612c1b91612da6565b6040015260608d015260808c0152151560a08b015260c08a015260e0890152610100880152610120870152610140860152600160a01b60019003811661016086015261018085018160a01c60ff1690612c7391612db3565b8060a81c60ff1615156101a086015260b01c60ff1615156101c08501526101e084015261020083015261022082015261024090f35b50346105bc5760203660031901126105bc57600435612cc561328f565b600381148015612d9c575b15612d575760ff600c5460a01c1660038110156104dc57612cf19015612e39565b6201518090818102918183041490151715612d43576020612d357f59a09ec4cc6798fdc60dd48919739ef2bf2822ddaaf541d468f00b3dd0ca118792600b54612ea2565b80600b55604051908152a180f35b634e487b7160e01b82526011600452602482fd5b60405162461bcd60e51b815260206004820152601e60248201527f43616e206f6e6c7920657874656e642062792033206f722037206461797300006044820152606490fd5b5060078114612cd0565b906002821015610f6d5752565b906003821015610f6d5752565b600435906001600160a01b0382168203611bad57565b602435906001600160a01b0382168203611bad57565b601254811015612e235760126000527fbb8a6a4669ba250d26cd7a459eca9d215f8307e33aebe50379bc5a3617ec34440190600090565b634e487b7160e01b600052603260045260246000fd5b15612e4057565b60405162461bcd60e51b8152602060048201526011602482015270526166666c65206e6f742061637469766560781b6044820152606490fd5b81810292918115918404141715612e8c57565b634e487b7160e01b600052601160045260246000fd5b91908201809211612e8c57565b610240810190811067ffffffffffffffff82111761131b57604052565b67ffffffffffffffff811161131b57604052565b90601f8019910116810190811067ffffffffffffffff82111761131b57604052565b6002821015610f6d5752565b51908115158203611bad57565b15612f2257565b60405162461bcd60e51b815260206004820152600f60248201526e139bc81d1a58dad95d1cc81cdbdb19608a1b6044820152606490fd5b91908203918211612e8c57565b15612f6d57565b60405162461bcd60e51b815260206004820152601360248201527227b7363c90383630ba3337b9369030b236b4b760691b6044820152606490fd5b15612faf57565b60405162461bcd60e51b81526020600482015260136024820152725072697a65206e6f7420696e20657363726f7760681b6044820152606490fd5b15612ff157565b60405162461bcd60e51b815260206004820152601860248201527f52616e646f6d6e657373206e6f742072657175657374656400000000000000006044820152606490fd5b90816020910312611bad57516001600160a01b0381168103611bad5790565b1561305c57565b60405162461bcd60e51b8152602060048201526016602482015275115b9d1c9bdc1e481b9bdd0818dbdb999a59dd5c995960521b6044820152606490fd5b81156130a4570690565b634e487b7160e01b600052601260045260246000fd5b600d549081156130f5576001600160a01b03166000908152601160205260409020546127108082029180159083049091141715612e8c570490565b5050600090565b1561310357565b60405162461bcd60e51b81526020600482015260126024820152714e6f207072697a6520696e20657363726f7760701b6044820152606490fd5b601054604051631c41f82360e31b81526001600160a01b03916020908290600490829086165afa60009181613189575b5061317b575b50600f541690565b81811615613173575b905090565b6131a391925060203d60201161044b5761043d8183612ee0565b903861316d565b601054604051633375e33f60e21b815290602090829060049082906001600160a01b03165afa600091816131e8575b506131e55750600e5490565b90565b9091506020813d602011613214575b8161320460209383612ee0565b81010312611bad575190386131d9565b3d91506131f7565b601054604051638da5cb5b60e01b81526001600160a01b03916020908290600490829086165afa60009181613259575b506131845750600f541690565b61327391925060203d60201161044b5761043d8183612ee0565b903861324c565b519067ffffffffffffffff82168203611bad57565b6001546001600160a01b031633036132a357565b60405163118cdaa760e01b8152336004820152602490fd5b600180546001600160a01b039283166001600160a01b0319821681179092559091167f8be0079c531659141344cd1fd0a4f28419497f9722a3daafe3b4186f6b6457e0600080a3565b600260005414613315576002600055565b604051633ee5aeb560e01b8152600490fd5b60065461333660ff8216612fa8565b600c546001600160a01b039190821690811561348a5760ff191660065560ff60025460a01c166002811015610f6d576001036133dd5750806003541690600c5416600454823b15611bad57604051632142170760e11b81523060048201526001600160a01b039290921660248301526044820152906000908290606490829084905af180156133d1576133c65750565b6133cf90612ecc565b565b6040513d6000823e3d90fd5b600354821680613410575050600080808093600c541660055490828215613407575bf1156133d157565b506108fc6133ff565b60055460405163a9059cbb60e01b81526001600160a01b039390931660048401526024830152909150602090829060449082906000905af180156133d1576134555750565b6020813d602011613482575b8161346e60209383612ee0565b81010312611bad5761347f90612f0e565b50565b3d9150613461565b60405162461bcd60e51b815260206004820152600d60248201526c139bc81dda5b9b995c881cd95d609a1b6044820152606490fd5b51906001600160a01b0382168203611bad57565b601254906000805b83811061350f575050506000198101908111612e8c576134fa90612dec565b905460039190911b1c6001600160a01b031690565b6135449161351c82612dec565b93909160018060a01b03809354600396871b1c16600052601160205260406000205490612ea2565b928385106135565750506001016134db565b935093506135649150612dec565b9054911b1c169056fea2646970667358221220a13c222b4b5dc5d5bbabdd2b0e25700f0b79b315d0f7c4e4a6500f4cec59d93d64736f6c63430008160033",
  "linkReferences": {},
  "deployedLinkReferences": {}
}